:020000040800F2
:10000000D8060020890100089B0D0008C90C0008D3
:10001000990D00088B020008BB0E000800000000CC
:100020000000000000000000000000009F0D00081C
:100030008D020008000000009D0D0008A10D0008C1
:10004000A3010008A3010008A3010008A301000800
:10005000A3010008A3010008A3010008A3010008F0
:10006000A3010008A3010008A3010008A3010008E0
:10007000A3010008A3010008A3010008A3010008D0
:10008000A3010008A3010008A3010008A3010008C0
:10009000A3010008A3010008A3010008A3010008B0
:1000A000A3010008A3010008A3010008A3010008A0
:1000B000A3010008A3010008A3010008A301000890
:1000C000A3010008A3010008A3010008A301000880
:1000D000A3010008A3010008A3010008A301000870
:1000E000A3010008A3010008A301000800F002F822
:1000F00000F03AF80AA090E8000C82448344AAF188
:100100000107DA4501D100F02FF8AFF2090EBAE885
:100110000F0013F0010F18BFFB1A43F0010318473B
:10012000EC1800000C190000103A24BF78C878C100
:10013000FAD8520724BF30C830C144BF04680C60ED
:10014000704700000023002400250026103A28BF35
:1001500078C1FBD8520728BF30C148BF0B60704739
:100160001FB51FBD10B510BD00F058F81146FFF7C0
:10017000F7FF00F0B3FE00F076F803B4FFF7F2FFEC
:1001800003BC00F07BF8000009488047094800479D
:10019000FEE7FEE7FEE7FEE7FEE7FEE7FEE7FEE737
:1001A000FEE7FEE704480549054A064B7047000094
:1001B000F50D0008ED000008D8000020D80600204A
:1001C000D8020020D80200204FF0000200B51346EC
:1001D00094469646203922BFA0E80C50A0E80C5067
:1001E000B1F12001BFF4F7AF090728BFA0E80C5018
:1001F00048BF0CC05DF804EB890028BF40F8042B11
:1002000008BF704748BF20F8022B11F0804F18BF7D
:1002100000F8012B7047704770477047754600F033
:1002200029F8AE4605006946534620F0070085468A
:1002300018B020B5FFF7B6FFBDE820404FF000062C
:100240004FF000074FF000084FF0000B21F00701BE
:10025000AC46ACE8C009ACE8C009ACE8C009ACE801
:10026000C0098D4670470446AFF300802046FFF773
:1002700084FF0000004870477400002001491820E6
:10028000ABBEFEE7260002007047FEE770470000A5
:1002900070B5044600F00CF90546601C02D0044815
:1002A0000078044400F004F9401BA042FAD370BD6A
:1002B000200000202DE9F84FDFF8B091002409F16B
:1002C000040A0AF1040B23460F270BF1040EC6E0C3
:1002D0000125A5402A40AA4276D1DFF894C14E6894
:1002E000A6EB0C0866452BD00DDC032E34D005DCC4
:1002F00036B3012E19D0022E2FD11BE0112E16D0AD
:10030000122E2AD119E0B8F5881F19D006DCB8F5ED
:10031000803F15D0B8F5801F1FD111E0B8F5001F40
:100320000ED0B8F5041F18D10AE0CB6815E0CB68F1
:100330001B1D12E0CB6808330FE0CB680C330CE0D8
:100340008B682BB1012B4FF0080303D0456104E00B
:10035000042302E0056100E00023FF2A01D80646DD
:1003600001E000F104064FEA840501D9A5F120055A
:10037000D6F8008007FA05FC28EA0C0803FA05F510
:1003800048EA0508C6F800804D68ED0066D5394D8D
:10039000AE6946F00106AE61AD6924F0030605F0D2
:1003A00001050095344D06EB050CDCF80850A60756
:1003B000360F07FA06F825EA0805DFF8C080404541
:1003C00003D14FF0000817E048E0DFF8B480404563
:1003D00002D14FF001080FE0DFF8A880404502D1BC
:1003E0004FF0020808E0DFF8A080404502D14FF04E
:1003F000030801E04FF0040808FA06F848EA050887
:10040000CCF808804D68D9F80060ED03002D4D460A
:1004100001DA164300E096432E604D68DAF800607A
:10042000AD03002D554601DA164300E096432E60D9
:100430004D68DBF80060ED02002D5D4601DA1643E1
:1004400000E096432E604D68DEF80060AD02002D9E
:10045000754601DA164300E096432E60641C0A6874
:1004600032FA04F57FF434AFBDE8F88F00040140A0
:10047000000011100010024000000140000801407F
:10048000000C014000100140001401408068084049
:1004900000D001207047C26821EA02030A4043EA03
:1004A0000241016170470AB1016170470904FBE72D
:1004B00001488068704700002000002002488168E1
:1004C000027811448160704720000020074810B571
:1004D000016841F010010160032000F05FF80F2077
:1004E00000F006F800F024F8002010BD00200240C3
:1004F00070B50D4D04464FF47A712878B1FBF0F0D9
:100500000A490968B1FBF0F000F0DEFA48B9102C96
:1005100007D200222146501E00F020F800206C6017
:1005200070BD012070BD0000200000202C000020C4
:10053000094808B5816941F001018161816901F0D3
:1005400001010091C16941F08051C161C06900F0B1
:100550008050009008BD000000100240F0B40E4B27
:100560001B680C46C3F30223C3F10705042D00D911
:100570000425191D072901D2002300E0DB1E0126F6
:1005800006FA05F1491E214099409E40761E16400C
:100590003143F0BC00F092BC0CED00E0064900F0E5
:1005A000070208684FF6FF03184040EA0220034A9A
:1005B00010430860704700000CED00E00000FA05F1
:1005C0002DE9F0470F46050061D0434E306800F03A
:1005D0000700B84209D2306820F007003843306085
:1005E000306800F00700B84251D128683B4C8107C1
:1005F00012D5400703D5606840F4E0606060287859
:10060000000703D5606840F4605060606068A968C6
:1006100020F0F000084360602878C00728D06868A0
:10062000012810D02168022810D0890700292EDA6D
:10063000616821F0030101436160FFF739FF8046E3
:1006400041F288390DE021688903EFE78901EDE780
:10065000FFF72EFFA0EB0801494502D90320BDE8B2
:10066000F0876068696800F00C00B0EB810FEFD193
:10067000306800F00700B8420BD9306820F007005E
:1006800038433060306800F00700B84201D00120E4
:10069000E5E72878400705D56068E96820F4E06060
:1006A000084360602878000706D56068296920F44F
:1006B000605040EAC100606000F038F86168084AA4
:1006C000C1F30311515CC840064908600648006840
:1006D000FFF70EFF0020C2E700200240001002409A
:1006E000F41900082C0000202400002004480549CB
:1006F00000684968044AC1F30221515CC840704750
:100700002C00002000100240041A0008044805498B
:1007100000684968044AC1F3C221515CC84070476F
:100720002C00002000100240041A000814A185B01B
:10073000D1E90023D1E90201CDE9020114A0CDE9FC
:100740000023144A006804905168134801F00C0318
:10075000042B10D0082B0ED1C1F38343C9031DF81D
:1007600003000AD5516804AAC1F34041515C0A4A0A
:100770005043B0FBF1F005B0704708494843FAE731
:1007800002030405060708090A0B0C0D0E0F1010D2
:10079000010200000010024000127A0000093D0032
:1007A0002DE9F84F040070D02078C24DC00749D021
:1007B0006868C0F38100012807D06868C0F3810031
:1007C000022809D16868C00306D52868800339D596
:1007D00060680028E7D035E06068B0F5803F0BD056
:1007E00010B1B0F5A02F11D0286820F48030286017
:1007F000286820F4802002E0286840F480302860D7
:10080000606890B1FFF754FE06460AE0286840F49D
:1008100080202860F0E700BFFFF74AFE801B6428B5
:1008200074D828688003F7D50CE0FFF741FE064630
:1008300005E000BFFFF73CFE801B6428F0D8286865
:100840008003F7D420789C4E80074FF001094FF0C9
:10085000000839D5686810F00C0F07D06868C0F33D
:100860008100022809D16868C00306D4286880077F
:1008700014D52069012808D110E02069B0B1C6F86C
:100880000090FFF715FE074605E00EE1FFF710FEAA
:10089000C01B0228C4D828688007F7D5286861697A
:1008A00020F0F80040EAC10028600DE0C6F80080A2
:1008B000FFF7FEFD074604E0FFF7FAFDC01B022824
:1008C000AED828688007F7D4207800072ED57B485B
:1008D000A169E1B1C0F80090FFF7EAFD074604E026
:1008E000FFF7E6FDC01B022810D8686A8007F7D51D
:1008F00073484FF4FA510068B0FBF1F0009000BF6C
:100900000098411E00910028F9D10FE082E0C0F864
:100910000080FFF7CDFD074605E000BFFFF7C8FDEB
:10092000C01B022876D8686A8007F7D42078400771
:1009300061D5E8690027C00008D4E86940F080501C
:10094000E861E869012700F0805000905D48016887
:10095000C90513D40168834641F480710160FFF733
:10096000A7FD824606E000BFFFF7A2FDA0EB0A004C
:1009700064284FD8DBF80000C005F5D5E0680128F1
:100980000AD008B1052813D0286A20F00100286297
:10099000286A20F0040002E0286A40F00100286282
:1009A000E06841F2883B98B1FFF782FD82460BE098
:1009B000286A40F004002862EEE700BFFFF778FDE8
:1009C000A0EB0A0159455CD8286A8007F6D50CE0EF
:1009D000FFF76EFD824605E0FFF76AFDA0EB0A0116
:1009E00059454ED8286A8007F6D4012F03D1E8690B
:1009F00020F08050E861E06990B36968C1F381013B
:100A0000022945D00228C6F8608004D0FFF750FDC7
:100A1000044639E035E0FFF74BFD074605E000BF2F
:100A2000FFF746FDC01B02282BD828688001F7D4A9
:100A3000206AB0F5803F05D16868A16820F40030D5
:100A400008436860D4E908010843696821F4741117
:100A500008436860C6F86090FFF72AFD044606E088
:100A600025E000BFFFF724FD001B022809D82868F5
:100A70008001F7D51BE000BFFFF71AFD001B02281D
:100A800002D90320BDE8F88F28688001F4D40EE075
:100A90000128F7D06868226A00F48031914204D1BD
:100AA000616A00F47010884201D00120EAE700205A
:100AB000E8E7000000100240000042428004424289
:100AC0002C0000200070004010B5401EB0F1807F67
:100AD00001D3012010BD4FF0E02460610F216017A9
:100AE00000F0ECF90020A06107202061002010BD7B
:100AF00070B5040004D094F83D00002510B106E064
:100B0000012070BD84F83C50204600F023F82420DA
:100B100084F83D002068C16821F40051C16020467E
:100B200000F06AF92068016921F4904101612068B0
:100B3000416921F02A0141612068C16841F40051F6
:100B4000C1602564202084F83D0084F83E00002028
:100B500070BD000030B585B000240094019402946B
:100B6000039400681449884224D11448816941F4EF
:100B700080418161816901F480410491816941F082
:100B80000401816180690E4D00F0040004904FF46F
:100B900000700090022001900320039069462846CF
:100BA000FFF788FB2815CDE9000469462846029422
:100BB000FFF780FB05B030BD003801400010024057
:100BC0000008014090F83E30202B0ED159B152B1AF
:100BD00090F83C30012B08D0012380F83C300023F2
:100BE000036300F04FB901207047022070472DE9E0
:100BF000F04100250E4607462C4604E0384600F03A
:100C000016F80544641CB442F8DB95FBF6F0BDE829
:100C1000F08110B50446FFF7EAFF2169401A10BDC4
:100C200010B5044600F003F82169401A10BD2DE903
:100C3000F0410025044681882F4600682A46FFF7C8
:100C400032FCA189A068FFF721FC0028F9D1002619
:100C5000A18801222068FFF726FC6D00A1880022F0
:100C60002068FFF720FCA189A068FFF70FFC10B1F6
:100C700006B901276D1C761C182EE9DB0FB185F033
:100C80007F45A18801222068FFF70DFCA188002282
:100C90002068FFF708FC00260AE0A18801222068EE
:100CA000FFF701FCA18800222068FFF7FCFB761CFF
:100CB0006069B042F1DC2846BDE8F08110B5044619
:100CC000FFF795FF206110BDFEE700002DE9F04120
:100CD00086B0002620480096019602960396816908
:100CE00041F010018161816901F010010491816975
:100CF00041F0040181618069184F00F004004FF455
:100D000000540490002221463846FFF7CCFBDFF860
:100D10005080002202214046FFF7C5FB00940124C9
:100D20000225CDE90145694638460395FFF7C2FA29
:100D3000CDE9005469464046CDE90245FFF7BAFACD
:100D40000C20CDE90006694602944046FFF7B2FA4E
:100D500006B0BDE8F0810000001002400010014024
:100D6000000801400B4810B5094901604FF4E1311A
:100D70004160002181600C22C160C0E904128161E0
:100D8000C161FFF7B5FE002801D072B6FEE710BDC5
:100D90000038014030000020FEE7FEE77047704752
:100DA000FFF78CBB10B590B028216846FFF70CFA0E
:100DB00014210AA8FFF708FA0220009001200490ED
:100DC00010200024059007946846FFF7E9FC08B15D
:100DD00072B6FEE70F20CDE90A040C940D940021B1
:100DE0000AA80E94FFF7ECFB002801D072B6FEE7CC
:100DF00010B010BD7047000010B5044600680169CE
:100E0000E26821F44051114301612169A06808435F
:100E1000616908432168CA6841F20C639A4302433E
:100E2000CA6020684169A26921F44071114341619F
:100E300013492068884202D1FFF768FC01E0FFF700
:100E400055FC00EBC00101EB0010616864228900D1
:100E5000B0FBF1F1B1FBF2F06FF01803434301EB8B
:100E60008303322101EB0311B1FBF2F101F0F00237
:100E700002EB001001F00F0108442168886010BDEA
:100E80000038014081628285C285002101642222EE
:100E900080F83E2080F83C100168CA6842F48072F5
:100EA000CA6001684A6942F001024A610068C1688B
:100EB00041F02001C16000207047FEE70907090EDC
:100EC000002801DB034A02E0034A00F00F008154CE
:100ED0007047000000E400E014ED00E086B002205E
:100EE000ADF804000420264CADF80C00002000945E
:100EF000029404900590FFF7E9FAFFF733FFFFF73C
:100F000051FFFFF7E3FEFFF72DFF02221D491E48A8
:100F1000FFF758FE05216846FFF7D0FE082120465E
:100F2000FFF7B4FA0028F9D032216846FFF771FEC6
:100F3000144C606000F086FA02460B46002013490C
:100F400000F028F9124E4FF40055C4E9020168463A
:100F5000FFF766FE606000F075FAD4E9022300F046
:100F6000C5FAC4E9060100F015F8C4E904016420DB
:100F7000FFF78EF929463046FFF78DFAE7E70000C4
:100F800000080140000000203000002000C06C403C
:100F9000001001402DE9F04D07460E4600F0DAFB47
:100FA00004460D463A46334600F02EFC0746DFF86D
:100FB00070A0DFF870B01C4B884616F0004F4FF061
:100FC000000238460AD000F055FA0AD900225B46E2
:100FD0003846414600F088FB1BD212E000F04AFA86
:100FE00008D2002253462046294600F019FC044648
:100FF0000D460EE000225B463846414600F074FB89
:1010000007D8002253462046294600F00FF8044630
:101010000D463146204665F31E01BDE8F08D000007
:101020000000F03F0000E03F0000E0BF10B591EA93
:10103000030F48BF83F0004300F1FA83841A71EB79
:10104000030C05D2121943EB0C03001B61EB0C01DE
:10105000DFF824E14FEA1154A4EB135C1EEA430FBE
:1010600018BF9EEA445F73D023EA0E03DCF1200E22
:1010700021EA045143F4801332D322FA0CFE10EB20
:101080000E0023FA0CFE41EB0E01CCF1200E03FA08
:101090000EFE10EB0E0051F10001B1F5801FCCF1F6
:1010A000200E32D201EB045112FA0EF2BDE81040CC
:1010B00058BF7047401C38BF5FEA420218BF7047F4
:1010C000002814BF20F0010041F100014FEA410364
:1010D00013F5001F38BF7047A1F1C04100F0FEBA00
:1010E000012A43EB0302ACF1200CDCF11F0E32BFEE
:1010F0004FF0000E23FA0CF310EB030041EB045108
:10110000B4EB115FD0D0A1EB045101F58011490877
:101110005FEA300001EB04510ED350F1000038BFFC
:1011200012FA0EFE08D1BDE81040C9E7401C38BFD6
:101130005FEA4202CAD1C3E7BDE810404FEA41036B
:1011400013F5001F38BF7047A1F1C04100F0C6BAC7
:101150009EEA445F08D011EA5E0FBDE8104004BF6C
:1011600001F0004100207047BDE8104070B500F06C
:1011700067FA00BF64FBBE3E0000E0FF491058BFA5
:10118000C1F140415B1058BFC3F140438B42EFF3C4
:10119000008070472DE9C04130B4DFF8A0C23CEABE
:1011A000111418BF3CEA131400F0EC8081EA030527
:1011B0001CEA111444EAD57418BF1CEA131500F098
:1011C000C780A4EB05044FF0004545EAC12145EA7C
:1011D000C32341EA505143EA525304F17F749942C8
:1011E00004F500344FEAC0204FEAC22208BF904203
:1011F00000F09C804FEA13650FF24016765D4FEACF
:10120000134506FB05F7C7F1807706FB07F74FEAA2
:10121000D737A7FB03687642C8F58038A7FB06CE10
:1012200038BFA8F1010807FB08E64FF0000EA6FB47
:10123000028CE6FB03CEDCF1000CCEF1004E38BF91
:10124000AEF1010EA6FB0C584FF000074FF0000561
:10125000E6FB0E87A1FB08C6A0FB07CE16EB0E0629
:1012600045F10005E1FB076515F1E04E7EBFA4F5F1
:1012700080345FEA46066D4116F1800745F10005AE
:101280004FEA17274FEA066647EA0567A6F1DE46EA
:10129000B6F1805F4FEA15251FD9384624F0010CBE
:1012A00005EBC471BCF1FE6F01EB0C1102D8F0BC70
:1012B000BDE8008124425CBF01F5801E9EEAC47F28
:1012C00002D4F0BCBDE80081244238D4F0BCA1F1C6
:1012D000C041BDE8004100F001BA4FEAD22242EA23
:1012E00043524FEAD323A7FB02864FEAD02040EABD
:1012F000415007FB03661EEA0E0F4FEAD12105FBA2
:10130000026658BFA6EB0056B6EB00564FEA520EE7
:101310004EEAC37E18EB0E0E56EB530EBDD518EBFE
:1013200002085E417F1C55F10005B6E74FF48015B9
:101330004FF000074FF000064FF00008ADE7F0BC9B
:101340004FF0000001F1C04101F00041BDE8008113
:1013500011EA0C1F0CEA131500D00CE013EA0C1F65
:1013600000F025804FF00000F0BC81EA030101F09D
:101370000041BDE80081F0BCBDE8004181EA030105
:1013800000F0ACB9F0BCBDE8004170B500F058F910
:10139000097EFC3E00F007B881EA03014FF000002F
:1013A00001F00041704781EA030100F097B9F0BCF9
:1013B000BDE800414FF0000021497047FFFDFBF9F7
:1013C000F7F5F4F2F0EEEDEBE9E8E6E4E3E1E0DE78
:1013D000DDDBDAD8D7D5D4D3D1D0CFCDCCCBCAC8EA
:1013E000C7C6C5C4C2C1C0BFBEBDBCBBBAB9B8B711
:1013F000B6B5B4B3B2B1B0AFAEADACABAAA9A8A804
:10140000A7A6A5A4A3A3A2A1A09F9F9E9D9C9C9BD1
:101410009A9999989797969595949393929191907C
:101420008F8F8E8E8D8C8C8B8B8A8989888887870D
:101430008685858484838382828181800000FF0782
:101440000000F87F10F0004248BF4042B0FA80F33D
:1014500010FA03F10AD0C3F11D0303F580634FEACC
:10146000415002EB035202EBD12170474FF00000D4
:101470007047000051EA030C17D41CF5801F58BFB9
:10148000BCF5801F00F10680994218BF704708BF65
:101490009042704707D711F5801F58BF13F5801F82
:1014A00019D499427047894270471CF5801F08D5AE
:1014B000BCF5801FF7D58B4218BF704708BF82422A
:1014C00070474FF4001C1CEB410F38BF1CEB430F5F
:1014D00001D28B42704770B500F0B2F892244900F7
:1014E0004FF000514FF08053FFF748BEDFF848C17E
:1014F00070B51CEA111E1EBF1CEA13159EEA0C0FE4
:1015000095EA0C0F00F06F8081EA030423EA4C1384
:101510004EEAD47E21EA4C1141F4801143F4801349
:10152000AE44A1FB024CA0FB0365AEF17F7E3619F1
:1015300055EB0C05A1FB034C4CF10003A0FB021C76
:1015400016EB0C06654153F10003094218BF46F043
:10155000010613F4007F0BD14FEA03314FEA053047
:10156000340341EA155140EA16506FF003020AE0D5
:101570004FEAC3214FEAC520F40241EA555140EA3F
:1015800056506FF0020202EB2E4201EB025585EA43
:10159000CE710AD05FEA440C18BF24F0004450F129
:1015A000000041F1000120EAD47040F2FE7C624567
:1015B00000D270BDA84214BF4FF080444FF04044A9
:1015C000002E08BF0024BEF1806FA8BFA1F1C0416A
:1015D000BDE8704080F282804FF0000001F1C04110
:1015E00001F0004170479EEA0C0F0CEA131518BF7A
:1015F00095EA0C0F06D04FF0000081EA030E0EF0C2
:10160000004170BD00F01CF88900013E00F007B8F1
:1016100000F009B84FEA430C5FEA5C5C08D081EA4D
:10162000030100F05BB84FEA410C5FEA5C5CF6D165
:101630004FF00000014970470000FF070000F87FED
:101640000EF1020E2EF0030E5EF8046B364205D446
:10165000012A43EB030515F5001F12D8012841EBC1
:10166000010C1CF5001F0CD80ED14FEAD17C15F5EA
:10167000001F0CEB4C0C0CF1020C08BF4CEBD37CA4
:1016800004E04FF0080C01E04FEAD37C0CEB4C0572
:1016900026FA05F606F00706B6F1040C06D20EEBA4
:1016A000860CBDE870404CF0010C6047DFE80CF0A0
:1016B000090B02024FF000414FF00000A1F500219C
:1016C00070BD19461046012851EB010418BFD4F52E
:1016D000001484BF002001F0004170BD0808A0F58F
:1016E00000114FEA3101704753EA010C17D41CF581
:1016F000801F58BFBCF5801F00F106808B4218BFC9
:10170000704708BF8242704707D713F5801F58BF44
:1017100011F5801F19D48B4270479B4270471CF50E
:10172000801F08D5BCF5801FF7D5994218BF7047B8
:1017300008BF904270474FF4001C1CEB430F38BFAA
:101740001CEB410F01D2994270470FB40CBC03BC93
:10175000FFF7C1BE5FEA410C5FEA5C5CACF58063F9
:101760005B1C39D4D3F1340240F34580B2F120033D
:1017700014DA4FF0010C0CFA02FCACF10103034047
:10178000B3EB5C0220EA030008BF10EA0C0F98BF1D
:10179000704710EB0C0041F1000170470AD0C3F113
:1017A000200201FA02FC012821FA03F101FA03F1F7
:1017B0004CF100004FF0010C0CFA03FCACF10103FA
:1017C000B0F1004F21EA030108BF11EA0C0F4FF0FE
:1017D000000088BF61447047B3F1FF3F28BF50EA63
:1017E000C12C01F000414FF0000084BF41F07C515A
:1017F00041F470017047B3F5806FB8BF704770B5A2
:10180000FFF71EFF40DBB6BE91EA030F10B581F073
:1018100000413FF513AC83F0004300F009B800002D
:1018200010B591EA030F48BF83F000433FF506ACC3
:10183000841A71EB030C07D212198CF0004C43EBA5
:101840000C03001B61EB0C01DFF8A4E14FEA11541B
:10185000A4EB135C1EEA430F18BF9EEA445F00F03E
:10186000B08023EA6E03524221EA0451C3EB6E03B7
:1018700038BF5B1EDCF1200E25D322FA0CFE10EBE4
:101880000E0043FA0CFE41EB0E01CCF1200E03FAE0
:101890000EFE10EB0E0051F10001CCF1200E29D408
:1018A00012FA0EF201EB0451BDE8104058BF704728
:1018B000401C1CBFB2F1004F704700280CBF491CF0
:1018C00020F00100704712EB020E43EB030218BF39
:1018D0004FF0010E4EEA4202ACF1200CDCF11E0E7C
:1018E00054D943FA0CFE10EB0E0051F1FF31CCF14C
:1018F0001E0ED5D50EF1010E12FA0EFE404141EB3F
:10190000010101EB445C5FEA5C5C10D910EBDE7016
:1019100001EB045138BFBEF1004FBDE8104018BFC5
:10192000704700280CBF491C20F00100704730D2DE
:101930004FEAD42C11F5001124F400641BD0B1FA45
:1019400081F20B3AA41AA41ED2F12003914030FA7E
:1019500003F31943904001EBCC71002C01EB0451CF
:10196000BDE81040A8BF704701F1C0414FF0000032
:1019700001F000417047B0FA80F310FA03F100D192
:1019800010BDE41A173C4805C90AE4E701EB04510D
:1019900010BD491001EB0451BDE810404FEA300082
:1019A00002E04FF0000170474A0008BF0042F8D043
:1019B000B2F5001F28BF704701F000414FF0000052
:1019C00070479EEA445F07D011EA5E0FBDE8104001
:1019D00004BF002100207047BDE8104070B5FFF73C
:1019E0002FFE00BF40DFF63E83F0004110467047F7
:1019F0000000E0FF000000000000000001020304FE
:101A00000607080900000000010203042C1A000860
:101A10000000002030000000280100085C1A0008C7
:101A200030000020A806000044010008000000006B
:101A300000000000000000000000000000000000A6
:101A40000000000000000000000000000100000095
:0C1A500010000000000000000024F40062
:04000005080000ED02
:00000001FF
